:020000040800F2
:10000000A01700203D380008DD050008DF050008C6
:10001000E1050008E3050008E50500080000000010
:10002000000000000000000000000000E7050008DC
:10003000E905000800000000EB050008ED050008D8
:100040005738000857380008573800085738000854
:100050005738000857380008573800085738000844
:100060005738000857380008573800085738000834
:1000700057380008573800085738000885510008DD
:100080005738000857380008573800085738000814
:100090005738000857380008573800085738000804
:1000A00057380008573800085738000857380008F4
:1000B00057380008335200085738000857380008EE
:1000C00057380008573800085738000857380008D4
:1000D00057380008C5370008573800085738000857
:1000E00057380008573800085738000857380008B4
:1000F00057380008573800085738000857380008A4
:100100005738000857380008573800085738000893
:100110005738000857380008573800085738000883
:100120005738000857380008573800085738000873
:10013000DFF80CD005F04AFF0048004745010008F1
:10014000A0170020FCB000252C4603F08DFA03F028
:10015000D7FA4FF47A3003F0E7FA02F0D6FB00F05A
:1001600041FD41F61F41312005F036F8102140F2E3
:10017000833000F0A2FC204600F094FCFA2003F04B
:10018000A1FA641CE4B20A2CF5D34FF4FA6003F030
:1001900099FAD448006880474FF6FF7A0024504609
:1001A00000F0F8FCD04F2022D0A33888CDE90032EF
:1001B0004FF4784B0126E038CDE9026B00EBD070AC
:1001C0001346C0F34F004FF482720A2102F0FFFF82
:1001D0004FF01809C9A2A046CDE90029CDE902686F
:1001E0004B464FF416723C211E2002F0F0FFC5A2D0
:1001F000CDE90029CDE9026818234FF41672542185
:100200001E2002F0E4FFC2A2CDE90029CDE9026878
:1002100018234FF416726C211E2002F0D8FFC0A2E2
:10022000CDE90029CDE9026818234FF41672842124
:100230001E2002F0CCFFBEA2CDE90029CDE9026864
:1002400018234FF416729C211E2002F0C0FF1F21BC
:100250004FF01009BAA2CDE90261CDE900297888F2
:100260004B46143881B238883222283880B202F0E6
:10027000AEFFDFF8D48298F80000012800D16D1C91
:1002800001F045FE10B9B1498D42F2D9AF498D4216
:1002900001D9002507E0012802D0022803D006E09A
:1002A00044B1641E02E00C2C01D2641CE4B20C2C9C
:1002B00000D90024A44801260D2C46701DD2DFE889
:1002C00004F0E007111D2E3E535C74829AB5C800FD
:1002D000584600F05FFC9E494FF4FC609DA2A1F8D7
:1002E00000A013E04FF4FC6000F054FC984900209B
:1002F0009DA208801AE002F06AFFC2E01F2000F011
:1003000049FC934958469DA2A1F800B0CDE90029C7
:10031000CDE902601023C8220A210846EBE700203D
:1003200000F038FC8A499AA2A1F800A0CDE9002982
:100330001023C822CDE9026B0A210846DBE75046AC
:1003400000F028FC8249002093A20880CDE9002912
:10035000CDE9026B0A211023C822084602F037FFBC
:100360007948B97981708CE08D4E7B8804A80AEABF
:1003700043013A88D6F800C00CE0DFF824C27B883D
:100380003A88DCF800C002FB03F604A80AEA43013D
:100390000CEB460C834ECDE902106644CDE90062B9
:1003A0000021084602F01FFC6BE0DFF8F4C17B88F7
:1003B0003A88DCF800C002FB03F604A80AEA43010D
:1003C0000CEB860CE6E77B88DFF8D4C13A884FF067
:1003D0000608DCF800C002FB03F008FB00CC714803
:1003E00004A90AEA43066044CDE90261CDE90002AE
:1003F00000210846D6E77B88DFF8A4C13A8804A824
:10040000DCF800C002FB03F60CEBC60C0AEA430161
:10041000644ECDE902106644CDE900620021084631
:1004200002F0E1FB04A806F075FA2AE0504600F05D
:10043000B1FB00205C4ACDE90260CDE900297B8850
:100440003A88014602F0C3FE3F480078012817D0E1
:1004500017E001F0B2FD55A2CDE90029CDE9026B0C
:100460000A2110236422084602F0B1FE1D4890F8CC
:100470003000000602D501F0AEFE01E001F038FFC9
:100480000024DFF8C48000260C2088F80160CDE944
:100490000006B8F80400032300EB80023888052129
:1004A000233880B200F099FD43A10C208DE8430071
:1004B00038880C23113880B21822052100F008FE7C
:1004C000B8F8040000EB80013CA005F0B3FD214624
:1004D0003FA005F0AFFDA8F80460204601F090FDB4
:1004E000C7E6000030000020CC000020D2E081866A
:1004F000BBD5BFC6BCBCBCAFCDC50000B4AEBFDA77
:10050000C6C10000D2BABEA7CFD4CABEC6C10000C1
:10051000D2BABEA7CFD4CABEC4A3BFE900000000B0
:10052000D6C7C4DCCFD4CABED6D5B6CB0000000037
:10053000CFD4CABEBDE2BEF6B7BDB0B80000000061
:10054000BCCCD0F8000000000000002040420F00AA
:100550001C000020C8FDBBF9C9ABCFD4CABEA3A8FC
:10056000BAECC9ABA3A90000C8FDBBF9C9ABCFD495
:10057000CABEA3A8C2CCC9ABA3A90000C8FDBBF9E1
:10058000C9ABCFD4CABEA3A8C0B6C9ABA3A900004B
:10059000BADAC9AB00000000B0D7C9AB0000000058
:1005A000B8000020A05F5A000C9C0008B4A5C3FE50
:1005B000B2E2CAD4000000004D530000CBA2CDBC73
:1005C000CAB1BCE4CAC7A3BA2564206D730D0A0082
:1005D00069783D3D3D25640D0A0000007047FEE747
:1005E000FEE7FEE7FEE77047704770477047000080
:1005F0000CB500224C4800920192016841F4803110
:1006000001604FF4A063016801F400310191009989
:10061000491C0091019911B900999942F3D10168DF
:10062000890333D50121019140490A6842F0100243
:100630000A600A6822F003020A600A6842F00202B5
:100640000A604168416041684160416841F48061ED
:100650004160416821F47C114160416841F4E81136
:100660004160016841F08071016001688901FCD539
:10067000416821F003014160416841F0020141609D
:100680004168C1F381010229FAD10CBD01920CBD70
:10069000254810B5016841F0010101604168244A14
:1006A000114041600168234A11400160016821F452
:1006B00080210160416821F4FE0141604FF41F0177
:1006C0008160FFF795FF1C494FF00060086010BD86
:1006D000154A10B55068194B10F00C01184803D09A
:1006E000042901D0082901D0036012E05168536841
:1006F00001F470114FF0020413F4803F04EB9141B8
:1007000002D053689B0301D50E4B00E00B4B5943BD
:10071000016051680A4AC1F30311121D515C02685D
:10072000CA40026010BD00000010024000200240DC
:100730000000FFF8FFFFF6FE08ED00E000127A006F
:100740000800002000093D00FF4A10B50021C2F852
:10075000AC11FE4CC4F8B01104F5D87402F0DAFB09
:100760000120206010BD70B5F7490125C1F8AC51DA
:10077000F64C0021C4F8B011C0B204F5D87402F0F0
:10078000C9FB256070BD10B51120FFF7DDFF782093
:1007900002F098FF3620FFF7D7FF0020FFF7E3FFB6
:1007A0003A20FFF7D1FF0520FFF7DDFFB220FFF76A
:1007B000CBFF0C20FFF7D7FF0C20FFF7D4FF002062
:1007C000FFF7D1FF3320FFF7CEFF3320FFF7CBFF3A
:1007D000B720FFF7B9FF7520FFF7C5FFBB20FFF774
:1007E000B3FF2120FFF7BFFFC020FFF7ADFF2C2094
:1007F000FFF7B9FFC220FFF7A7FF0120FFF7B3FF04
:10080000C320FFF7A1FF1320FFF7ADFFC420FFF7C0
:100810009BFF2020FFF7A7FFC620FFF795FF0F20C3
:10082000FFF7A1FFD020FFF78FFFA420FFF79BFF6A
:10083000A120FFF798FFD620FFF786FFA120FFF742
:1008400092FFE020FFF780FFD020FFF78CFF04200D
:10085000FFF789FF0A20FFF786FF0820FFF783FFD5
:100860000720FFF780FF0520FFF77DFF3220FFF70D
:100870007AFF3220FFF777FF4820FFF774FF382018
:10088000FFF771FF1520FFF76EFF1520FFF76BFFD5
:100890002A20FFF768FF2E20FFF765FFE120FFF712
:1008A00053FFD020FFF75FFF0720FFF75CFF0D200D
:1008B000FFF759FF0920FFF756FF0920FFF753FF05
:1008C0001620FFF750FF3020FFF74DFF4420FFF7C1
:1008D0004AFF4920FFF747FF3920FFF744FF162062
:1008E000FFF741FF1620FFF73EFF2B20FFF73BFFEE
:1008F0002F20FFF738FF2120FFF726FFBDE810402B
:10090000292021E770B504468F480125C0F8AC5175
:100910008E4E0020C6F8B001200A06F5D87602F007
:10092000F9FAE0B202F0F6FA356070BD10B50C4687
:10093000FFF70AFF2046BDE8104014E78448C0795D
:1009400002E7401EC0B2FCD270472DE9F041804F53
:1009500005460C46387AFFF7F7FE2E0A3046FFF7B9
:1009600002FFE8B2FFF7FFFE3046FFF7FCFEE8B2F9
:10097000FFF7F9FE787AFFF7E7FE250A2846FFF72A
:10098000F2FEE0B2FFF7EFFE2846FFF7ECFEE0B222
:10099000BDE8F041E7E610B50021082814D2DFE8F1
:1009A00000F00406080A0C0E101206200CE00720C6
:1009B0000AE0042008E0052006E0012004E0002011
:1009C00002E0032000E00220082812D2DFE800F055
:1009D000110406080A0C0E1080210AE0402108E0EC
:1009E000C02106E0202104E0602102E0A02100E017
:1009F000E0213620FFF79AFF554C207AFFF7A4FE3E
:100A00000020FFF7B0FE0020FFF7ADFE2088401E5B
:100A1000C0F30F20FFF7A7FE2078401EC0B2FFF7FB
:100A2000A2FE607AFFF790FE0020FFF79CFE0020F8
:100A3000FFF799FE6088401EC0F30F20FFF793FE7A
:100A4000A078BDE81040401EC0B28CE610B5144638
:100A5000FFF77BFFFFF772FFA0B2BDE8104051E740
:100A6000F0B400233A49F0242C263A4A4FF4A075FA
:100A70002A274FF02B0C58B1012088710D804C8033
:100A8000CE710F7281F809C013701078F0BC82E744
:100A90008B710C804D80CE710F7281F809C00520DA
:100AA0001070F2E76FF0180148434FF47A7101EBD0
:100AB0008000C906A1F840007047274AD36943F077
:100AC0000103D361936943F004039361234A1368DC
:100AD00023F470431360136843F4304313601F4AD8
:100AE0000C32136843F0080313604FF08042908586
:100AF0001185108C40F480501084D0131080108821
:100B000040F0010010804FF47A70A2F84000908B02
:100B100040F4E0409083908B40F4006090837047F5
:100B20002DE9F04105461044401E87B2C818DFF891
:100B30002080401E86B20C4698F80800FFF704FE9D
:100B4000280AFFF710FE0BE000002142008021423E
:100B5000CC0000201E0000200010024000080140D0
:100B6000E8B2FFF700FE380AFFF7FDFDF8B2FFF725
:100B7000FAFD98F80900FFF7E7FD200AFFF7F3FDFB
:100B8000E0B2FFF7F0FD300AFFF7EDFDF0B2BDE88F
:100B9000F041E8E52DE9F0470646FA4800242146F1
:100BA00002884388204603FB02F5FFF7B9FFFFF7F1
:100BB000C5FEF5480127C0F8AC71DFF8D0830021ED
:100BC000C8F8B0114FEA162906E0484602F0A2F92B
:100BD000F0B202F09FF9641CAC42F6D3C8F8B071D1
:100BE000BDE8F087F8B501211C2003F0D0F8012101
:100BF000084603F0CCF80121E54802F06BFF4FF402
:100C00000066ADF800601024E24F8DF80340032524
:100C10008DF802506946384602F0D1FE314638461A
:100C200002F037FF6002ADF800008DF803408DF848
:100C300002506946D84802F0C2FE2602ADF80060B4
:100C40008DF80340D54C8DF802506946204602F0DD
:100C5000B6FE3146204602F01CFF02F081F9D04D6D
:100C60000124C5F8B4410A2005F5DA7502F02AFD21
:100C700000202860142002F025FD2C60142002F0D2
:100C800021FDC148C0F8BC41FFF77DFD0020FFF702
:100C9000E7FE4FF6FF70FFF77DFFBA49C14A0888AB
:100CA000498850383F3901EBD17100EBD070C1F366
:100CB0004F01C0F34F0004F00FFAF8BD2DE9F047E3
:100CC0008046A2EB0800401C1F460D4686B2DDF8A8
:100CD000209010E029464046FFF737FEFFF72EFE32
:100CE000002404E04846FFF70DFE641CA4B2B442A1
:100CF000F8D36D1CADB2BD42ECD971E72DE9F047D8
:100D00008246A2EB0A00401C884687B2A3EB08008B
:100D1000401C86B20025DDF8209015E008EB0500A8
:100D200081B25046FFF711FEFFF708FE002407E0EE
:100D300005FB064139F81100FFF7E4FD641CA4B27D
:100D4000BC42F5D36D1CADB2B542E7D348E72DE9FF
:100D5000FE4F0026A2EB000882465F1A701E354641
:100D60008946B8F1000F02DD4FF0010102E003D126
:100D70004FF00001019102E0C8F100080190002F3E
:100D800002DD4FF0010002E003D14FF000000090BF
:100D900002E0C7F1000700904046B84501DD044677
:100DA00000E03C46601C4FF0000B029016E01FFA7A
:100DB00089F11FFA8AF00C9AFFF748FE46443D4439
:100DC000A64202DD0199361B8A44A54202DD009944
:100DD0002D1B89440BF101001FFA80FB02998B4502
:100DE000E5DDBDE8FE8F2DE9F8431D46089C16465B
:100DF000884607460B460094FFF7A9FF3A462B4664
:100E0000414610460094FFF7A2FF2B463246194692
:100E100038460094FFF79BFF32462B46414610466A
:100E20000094FFF794FFBDE8F8832DE9FF4F80465B
:100E300000241546032083B00F46A0EB450651E081
:100E4000781B019081B208EB040A1FFA8AF0069A17
:100E5000FFF7FCFD381B81B208EB050900901FFA73
:100E600089F0069AFFF7F2FD07EB040B1FFA8BF1EE
:100E70001FFA89F0069AFFF7E9FD07EB05091FFA4B
:100E800089F11FFA8AF0069AFFF7E0FDA8EB040A41
:100E90001FFA89F11FFA8AF0069AFFF7D7FDA8EB2F
:100EA00005091FFA8BF11FFA89F0069AFFF7CEFDAC
:100EB0000198069A81B21FFA8AF0FFF7C7FD0098E1
:100EC000069A81B21FFA89F0FFF7C0FD641C002E5C
:100ED00003DA06EB8406B61D04E0601B06EB800611
:100EE0006D1E0A36AC42ABDD07B0BDE8F08F2DE9D0
:100EF000FC5F814698460C468A46580700D0012080
:100F000000EBD8004FEA58014843C0B2203A0190A4
:100F1000D0B2B8F10C0F0AD0B8F1100F53D122495A
:100F200001EB00100027DFF85CB0009048E01F499B
:100F300000EB400001EB8000F4E700980025C65D5F
:100F4000300601D50D9A03E00C9828B9184842885C
:100F500021464846FFF77AFD7006060E641CBBF872
:100F60000200A4B2A0422ED9A4EB0A01414521D12E
:100F700009F10100BBF800101FFA80F954464945F9
:100F800021D91BE0CC00002000002142008021423A
:100F9000000230000008014000100140000C014038
:100FA00000002242A2740008906E00081C6A00082B
:100FB0001E0000206D1CEDB2082DC1D37F1CFFB2B6
:100FC00001988742B9D3BDE8FC9F0346012000E0A9
:100FD0005843491EC9B2FBD270472DE9FF4F83B079
:100FE00080460027DDE910091D4693463C46BA4677
:100FF000460827E0281B401EC1B20A20FFF7E5FF84
:10100000BBFBF0F00A21B0FBF1F201FB120027B9A3
:10101000691E8C4201DA48B101273030C2B2CDE9F5
:1010200000A906FB048080B2109B06E0CDE900A970
:1010300006FB0480109B80B220220499FFF757FF23
:10104000641CE4B2AC42D5D34EE72DE9FF4F83B028
:101050008046DDE911B910984FF0000A1F4654464A
:101060000BF0010546082EE0381B401EC1B20A20D5
:10107000FFF7ABFF0599B1FBF0F00A21B0FBF1F2ED
:1010800001FB1200BAF1000F05D1791E8C4202DA81
:1010900050B14FF0010A3030C2B2CDE9005906FB21
:1010A000048080B2109B09E0CDE900595FEA0B6033
:1010B00006FB0480109B80B208D530220499FFF70C
:1010C00016FF641CE4B2BC42CED30DE72022F5E744
:1010D0002DE9FC5F044600F0FF0910190D46DDE91B
:1010E0000C761FFA80F858191FFA80FADDF838B02C
:1010F00012E0444502D3E8194C4685B2554510D25A
:101100000021CDE9001B3B4629462046FFF7EFFEB4
:1011100004EB570084B2761C3278A2F120005E28DE
:10112000E7D950E72DE9F0410024FA4E054627465D
:101130004FF00108280602D5C6F8888101E0C6F8FC
:1011400088716806050EC6F88071012002F0A3FAC6
:10115000C6F88081641CE4B2082CEBD3BDE8F081B2
:101160002DE9F0470025EB4E2C462F46C6F880515E
:10117000C6F88851DFF8A0A3CAF8B85106F5C076C2
:10118000FFF7D0FF062002F086FA3760012002F058
:1011900082FA4FF00108C6F80080404602F07BFA60
:1011A0003760B94647464FF6FF78A6F5C07608EA9D
:1011B0004404C6F88091012002F06DFAC6F88071EF
:1011C000D6F8040108B1641CA4B26D1CEDB2102D58
:1011D000EDD32009CAF8B871BDE8F087FEB5064620
:1011E00000246D463046FFF7BBFF25F81400641C51
:1011F000A4B2052CF6D300214C1CA0B20BE035F8AC
:10120000113035F81020934203D925F8112025F824
:101210001030401C80B20528F1D3A1B20429EBD3D1
:101220000021012035F81020401C114480B289B201
:101230000428F7D30320B1FBF0F0FEBD2DE9F04107
:10124000B64C07460E462078FFF7C8FF0546607883
:10125000FFF7C4FFE58020813D80308001207DE7DD
:1012600070B586B00C460546694604A8FFF7E6FF50
:1012700000282FD001A903A8FFF7E0FF002829D0FC
:10128000BDF80C30BDF81020934203D803F13200B2
:10129000824205D39A421FD802F1320083421BD208
:1012A000BDF80410BDF80000814203D801F13206F8
:1012B000B04204D388420FD8323081420CD2D018C9
:1012C00040082880BDF80000BDF80410084440081C
:1012D0002080012006B070BD0020FBE72DE9F84317
:1012E00005468F4816460C46028005F10D00009217
:1012F00082B2193880B20B46FFF729FD04F10D00C8
:1013000083B2193881B22A4610460096FFF71FFDB6
:10131000671C05F10109B9B21FFA89F03246FFF7DF
:1013200095FBA5F10108B9B21FFA88F03246FFF724
:101330008DFB671EB9B21FFA89F03246FFF786FBB4
:10134000B9B21FFA88F03246FFF780FB01B033468E
:1013500021462846BDE8F0430622FFF766BD2DE989
:10136000F04105466E4816460F4602802846FFF7B4
:101370006DFB6C1CA0B232463946FFF767FB7F1C41
:10138000B9B232462846FFF761FBB9B2A0B2324685
:10139000BDE8F041FFF75ABB70B55F49D1F83C1189
:1013A0005E4C0C3441B194F82000010649D520F080
:1013B000800084F820004BE00200584800F10C0047
:1013C00000F1160100F10C0002D0FFF749FF24E004
:1013D000FFF746FF08B3B4F92C0004F0E8FA05461D
:1013E000A08904F0EDFA616A04F0F3F9294604F0EB
:1013F00098F904F010FBA081B4F92E0004F0D7FA9C
:101400000546E08A04F0DCFAA16A04F0E2F9294614
:1014100004F087F904F0FFFAE08294F82000000657
:1014200006D4C02084F82000A089A082E08AE0834E
:10143000A1893CA004F0FEFDE18A3CA004F0FAFD85
:1014400006E00020A082E0834FF6FF70A081E082DA
:1014500094F8200000F0800070BD38B52F4C354D59
:101460000C342946606A04F0B4F904F0BBFA010EAA
:101470008DF80010010C8DF80110010A8DF8021092
:101480008DF8030004224FF42101684601F02BFB84
:101490002946A06A04F09DF904F0A4FA010E8DF823
:1014A0000010010C8DF80110010A8DF802108DF862
:1014B000030004222049684601F015FBA08D02229A
:1014C000010A8DF800101C498DF80100091D6846BD
:1014D00001F009FBE08D0222010A8DF80010164987
:1014E0008DF80100891D684601F0FDFA94F830007E
:1014F00011498DF8000001220831684601F0F3FA25
:101500000A200D498DF8000001220931684601F0DA
:10151000EAFA38BD000021420000224224000020E7
:101520001C000020783A25640D0A0000793A2564F1
:101530000D0A000020BCBE4C0400A10038B50122F9
:10154000FE49684601F043FA9DF80040FCA02146A0
:1015500004F070FD0A2C01D00020DAE704224FF4D9
:101560002101684601F033FA9DF8000001029DF860
:101570000100084301029DF80200084301029DF8A2
:101580000300084304F013FAF14D294604F053F91F
:10159000F04CEA49042260620939684601F017FA02
:1015A0009DF8000001029DF80100084301029DF82A
:1015B0000200084301029DF80300084304F0F7F914
:1015C000294604F038F9DD49A0620222491F684625
:1015D00001F0FDF99DF800009DF80110022241EA9A
:1015E0000020D649A085C91E684601F0F0F99DF893
:1015F00000009DF80110012241EA0020CF49E0855A
:10160000491E684601F0E3F99DF80000902284F835
:101610003000A4F10C01D02310B10A704B7001E02E
:101620000B704A70012074E72DE9FF4F83B08046AC
:1016300010A80F4690E8000EC7494FF47840159C5B
:1016400008801025C5A00095CDE90104C44EA02155
:10165000282073883288FFF73BFDC2A00095CDE9B2
:10166000010473883288A0217820FFF731FDBEA0E5
:101670000095CDE9010473883288B4212820FFF752
:1016800027FDBAA00095CDE9010473883288B42102
:101690007820FFF71DFDB6A00095CDE90104738801
:1016A0003288C8212820FFF713FDB2A00095CDE9AC
:1016B000010473883288C8217820FFF709FDAEA0A5
:1016C0000095CDE9010473883288DC212820FFF7DA
:1016D000FFFCAAA00095CDE9010473883288DC21C3
:1016E0007820FFF7F5FCA6A00095CDE901047388EA
:1016F0003288F0212820FFF7EBFCCDE900540423C9
:101700004246A0214020FFF768FCCDE900540423A5
:101710003A46A0219020FFF760FCCDE90054042355
:10172000B4214020059AFFF758FCCDE9005404236A
:10173000B4219020069AFFF750FCCDE90054042311
:101740004A46C8214020FFF748FCCDE90054042355
:101750005246C8219020FFF740FCCDE900540423F5
:101760005A46DC214020FFF738FCCDE90054042321
:10177000DC219020139AFFF730FCCDE900540323BD
:10178000F0216020149AFFF728FC07B0BDE8F08F25
:101790002DE9F04F704F8BB01F2038807A484FF6FC
:1017A000FF76002506802C463046FFF7F3F94FF40C
:1017B0007849A7F800903046FFF7ECF97348002607
:1017C0003E80016810208DE8430028216423A02278
:1017D0000846FFF77DFC14214A460846FFF77EFDC8
:1017E0005C48DFF87C8180F820604662594E012019
:1017F0007168884796F820000121B1EB901F47D10E
:1018000020F0400086F8200006A8B28920F82520A4
:1018100000EB85006D1C0024F18AEDB24180012DA2
:1018200006D0022D11D0032D1FD0042D30D13BE066
:1018300014214FF6FF720846FFF750FDB8F800007C
:101840004A46143880B2142120E0B8F80000464619
:10185000143880B24FF6FF721421FFF73FFD7088F5
:101860004A46143881B2142010E0B8F80200464607
:10187000143881B24FF6FF721420FFF72FFD7088E5
:101880004A46143881B23088143880B2FFF726FDFA
:101890000A2001F017FF641CA4B2B4F57A7FA5D921
:1018A000FFF74CFE0BB071E7BDF81800BDF81C1037
:1018B000411A00D54942BDF81A00BDF81E20801A11
:1018C00000D5404249434043084404F07EF805F007
:1018D0007FF804F0B4F81FFA80FABDF82000BDF8D4
:1018E0002410411A00D54942BDF82200BDF8262037
:1018F000801A00D5404249434043084404F065F84B
:1019000005F066F804F09BF885B2284604F058F814
:101910000646504604F054F8314603F08CFF04F0BC
:10192000A7F806460F464FF06632194B04F0B4F89C
:1019300079D3184A184B304639462FE00D00A100E4
:1019400074656D706661633D2578200D0A000000A6
:1019500020BCBE4C300000201C00002078313A0032
:10196000CC00002079313A0078323A0079323A00DE
:1019700078333A0079333A0078343A0079343A00CF
:101980006661632069733A002000002080740008BB
:101990006666EE3FCDCCCCCCCCCCF03F04F094F8D6
:1019A00048D3BAF1000F45D0EDB3BDF81800BDF82B
:1019B0002010411A00D54942BDF81A00BDF8222076
:1019C000801A00D5404249434043084403F0FDFFDC
:1019D00004F0FEFF04F033F885B2BDF81C00BDF83A
:1019E0002410411A00D54942BDF81E00BDF826203A
:1019F000801A00D5404249434043084403F0E5FFC4
:101A000004F0E6FF04F01BF880B203F0D9FF0646AD
:101A1000284603F0D5FF314603F00DFF04F028F807
:101A200006460F4600E005E04FF06632FB4B04F03F
:101A300033F824D2B8F80210B8F80000143914387A
:101A4000002589B280B24FF6FF72FFF747FC1421E0
:101A50004A460846FFF742FC0022F14B3046394621
:101A600003F033FF03F0EBFFBDF8243080B2BDF884
:101A70002620CDF814900293CDE9032076E0DFF81C
:101A8000A8A3E84A53463046394604F01DF8D1D39E
:101A9000BDF81C00BDF82010411A00D54942BDF820
:101AA0001E00BDF82220801A00D540424943404321
:101AB000084403F08AFF04F08BFF03F0C0FF85B2F7
:101AC000BDF81800BDF82410411A00D54942BDF8F0
:101AD0001A00BDF82620801A00D5404249434043F1
:101AE000084403F072FF04F073FF03F0A8FF80B214
:101AF00003F066FF0646284603F062FF314603F016
:101B00009AFE03F0B5FF06460F464FF06632C34B10
:101B100003F0C2FF06D3C34A53463046394603F0AA
:101B2000D3FF34D2B8F80210B8F8000014391438D2
:101B3000002589B280B24FF6FF72FFF7CFFB142168
:101B40004A460846FFF7CAFB0022B54B30463946E5
:101B500003F0BBFE03F073FFBDF8243080B2BDF884
:101B60002610CDF814900293CDE90310BDF8221091
:101B7000BDF82000CDE90001BDF81E30BDF81C20E5
:101B8000BDF81A10BDF81800FFF74EFD2EE6BDF89F
:101B90001C00BDF818708246C01B03F008FFB8F89F
:101BA00000600546A6F1280003F001FF294603F076
:101BB00042FE9E4D834668620AEB070003F000FF79
:101BC000594603F006FE0746304603F0F9FE394653
:101BD00003F0F9FD4FF0FF3103F06BFE03F002FF5D
:101BE000A885BDF82200BDF81A100090401A019196
:101BF00003F0DDFEB8F802708246A7F1280003F07A
:101C0000D6FE514603F017FEA86282460290DDE937
:101C10000001084403F0D4FE514603F0DAFD824689
:101C2000384603F0CDFE514603F0CDFD4FF0FF31B5
:101C300003F03FFE03F0D6FEE885584603F0D2FEDF
:101C4000002800DA4042022807DC029803F0CAFEAE
:101C5000002800DA4042022833DD143F143E0025FC
:101C6000B9B2B0B24FF6FF72FFF738FB14214A4603
:101C70000846FFF733FB6E486EA201881020CDE9BD
:101C800000020291B8F80230B8F800201A2128208A
:101C9000FFF71EFA654991F8300048B1002081F83D
:101CA000300038B1614890210C380170D02106E035
:101CB0000120F4E75D48D0210C380170902141707B
:101CC00094E55B4C1F204FF6FF7520802846FEF7F9
:101CD00061FF22885CA110208DE80700B8F802306F
:101CE000B8F800206E212320FFF7F2F94F4C606A0C
:101CF00003F0BEFE02460B4659A004F09BF9A06A11
:101D000003F0B6FE02460B465AA004F093F9B4F96C
:101D10002C105DA004F08EF9B4F92E105FA004F031
:101D200089F94FF47A7001F0CDFCFFF796FB284655
:101D3000FEF730FFB6E52DE9F84301F070FB3B4CB0
:101D4000E8B300F064FBD8B30121142002F01FF8BF
:101D50004FF48047ADF800701025DFF854818DF8FE
:101D6000035003268DF802606946404601F027FEC5
:101D70003946404601F08DFE0720ADF800008DF891
:101D800003504C4D8DF802606946284601F017FE5D
:101D90000721284601F07DFE0221ADF80010482100
:101DA0008DF803106946284601F009FE02212846F5
:101DB00001F071FE04F11601A1F10A0001E010E04A
:101DC00011E0FFF73BFAA4F10C00C1880089014340
:101DD00012D000F09AFDFFF7B1FB98B10120BDE8E9
:101DE000F883354800E03548606094F8300040F0F2
:101DF000800084F83000F1E7314901200870314853
:101E00006060EBE74FF6FF70FEF7C4FEFFF7C0FC23
:101E1000FFF723FBFFF792FB0020E0E76666EE3F4B
:101E200000005940CDCCCCCCCCCCF03F30000020D1
:101E30001C0000205450204E65656420726561646A
:101E40006A75737421000000546F756368205363D2
:101E50007265656E2041646A757374204F4B210072
:101E600074705F6465762E786661633A25660D0A44
:101E70000000000074705F6465762E796661633AD5
:101E800025660D0A0000000074705F6465762E7888
:101E90006F66663A25640D0A0000000074705F6486
:101EA00065762E796F66663A25640D0A000000009B
:101EB0000010014000080140F5340008ED2400083E
:101EC00000000020352600082DE9F041FA4E0C46AE
:101ED00005467168984617460020884796F8200006
:101EE000000612D5142001F0EDFBB089E9198842F3
:101EF0000BD8A84209D3F08A04EB0801884204D821
:101F0000A04202D30120BDE8F0810020FBE72DE9CB
:101F1000F047E94D002420466968884795F820007D
:101F2000A5F10C0900063CD5E4488079F0B105F133
:101F30003400AE89ED8A4FF00208002100EBC10C9D
:101F400030F83130BCF80470BCF80220BCF806C090
:101F50001F44BE420DD29E420BD902EB0C039D42A0
:101F600007D2954205D9491CCCB206E0D24844308C
:101F7000DFE7491CC9B24145E0D3DCB1B9F8040040
:101F80004946421CA9F80420B0F5FA7F01D9C87867
:101F900020B9C878A04201D100240BE089F80340A1
:101FA00008E099F80310484621B100218180C170F2
:101FB00089F802102046BDE8F0877FB54FF6FF7024
:101FC000FEF7E8FD10251F24BDA00095BB4ECDE90E
:101FD000010430882B46183880B2C8220021FFF750
:101FE00077F80120B7A1CDE90204CDE9001570888A
:101FF0001023143881B23222002001F0E8F87FBDAE
:102000002DE9FF41B14D01261027AC4C01280DD917
:102010002888ACA1CDE90260CDE9001760881023C3
:10202000143881B23222002001F0D1F82888A8A10A
:10203000CDE90260CDE9001760881023143881B221
:1020400020883222283880B201F0C1F8BDE8FF8133
:1020500008B5002A06D00244521E009392B20B46E5
:10206000FEF72CFE08BD2DE9FF5F80460E4640F2CC
:10207000C32050434FF47A71B0FBF1F702FB02F03A
:1020800000EB520B14464FF6FF7000EA4202A8EB39
:10209000040080B231467F1C039BFFF7D9FF012566
:1020A00038E005FB05F004FB040159451BD9BC428F
:1020B00018D96800A0F10209301981B2A8EB050017
:1020C00000F1010A1FFA89F21FFA8AF0039BFFF759
:1020D000BFFF301B81B21FFA89F21FFA8AF0039BFF
:1020E000FFF7B6FF641E4FF6FF7000EA4402701956
:1020F00081B2A8EB040A91461FFA8AF0039BFFF70E
:10210000A7FF701B81B24A461FFA8AF0039BFFF7B4
:102110009FFF6D1CBD42C4D9BDE8FF9F884201D915
:10212000401A00E0081A80B270472DE9FE4F0026E1
:102130000C9C3546A0424CD3A2424AD3A14248D37C
:10214000A34246D3A2EB000882465F1A701E89465E
:10215000B8F1000F02DD4FF0010102E003D14FF0B2
:102160000001019102E0C8F100080190002F02DD9A
:102170004FF0010002E003D14FF00000009002E0B8
:10218000C7F1000700904046B84501DD044600E075
:102190003C46601C4FF0000B029017E0DDE90C2379
:1021A0001FFA89F11FFA8AF0FFF75DFF46443D44AC
:1021B000A64202DD0199361B8A44A54202DD009940
:1021C0002D1B89440BF101001FFA80FB02998B45FE
:1021D000E4DDBDE8FE8F2DE9F04F87B00020ADF8BB
:1021E0000800DFF8D4A0DFF8D480ADF80A004FF083
:1021F000010B02AF4FF6FF79DAF8041055460020C4
:1022000088470024AA460BFA04F09AF82010564694
:10221000014263D006EB4405B8F80020A989914239
:102220005ED2E98AB8F80200814259D2B189AFF68C
:102230000C5003F0FFFEF18AAFF6105003F0FAFEE7
:1022400037F82410494506D1A88927F8240007EB60
:102250008401E88A48802049022007EB840631F88F
:102260001410CDE90001EB8AAA89718837F824009F
:10227000FFF75BFFA98927F82410E88A7080B8F877
:102280000030283B994204DD282802D2FFF795FE52
:1022900026E0491E172923D2B8F8021088421FD21F
:1022A000183988421CDD4846FEF774FC0120FFF710
:1022B000A7FE07B0BDE8F08F30000020CC00002062
:1022C00052535400B7B5BBD8000000001C000020DA
:1022D000BCCCD0F8000000008474000827F82490DB
:1022E000641CE4B2052C8ED3052001F0EBF983E7E2
:1022F00070B5184D184C00206168884794F820008C
:10230000000622D5A0892B889842F4D2E18A6A88F7
:102310009142F0D2183B984204DD102902D2FFF717
:102320004CFEE8E7431E172B0AD2183A914207DD0C
:102330004FF6FF70FEF72EFCBDE8704001205FE60F
:102340004FF47842FFF70BF8D5E70A2001F0BAF90D
:10235000D1E70000CC000020300000202DE9F04142
:1023600015460E460446002700F0BCF9282000F070
:1023700050FA00F0EFF9200A00F04BFA00F0EAF909
:10238000E0B200F046FA00F0E5F9002408E0305D24
:1023900000F03FFA00F0DEF9070003D1641CE4B25C
:1023A000AC42F4D300F0BAF93846BDE8F0812DE92B
:1023B000F04115460F46044600F094F9282000F03D
:1023C00028FA00F0C7F9200A00F023FA00F0C2F959
:1023D000E0B200F01EFA00F0BDF900F083F9292008
:1023E00000F017FA00F0B6F900246E1E09E0B442BE
:1023F00001D0012000E0002000F033FA3855641CC1
:10240000E4B2AC42F3D3BDE8F04100F087B9FEB5C9
:102410000121102001F0BBFC4FF44044ADF808400E
:1024200010208DF80B000320834E8DF80A0002A9BE
:10243000304601F0C4FA2146304601F02AFB00F094
:1024400026F97E4D0024C5F8B8410A2005F5DC7553
:1024500001F038F9012028600A2001F033F94FF427
:102460000045ADF8085028208DF80B0002A9304631
:1024700001F0A5FA2946304601F00DFB642001F079
:1024800021F90422694648F24010FFF790FF8DF8C9
:10249000044069466AA003F0CDFD6CA1684603F0D4
:1024A00032F908B10120FEBD02208DF8000048F28B
:1024B0004005012269462846FFF750FF0122694680
:1024C000E81DFFF774FF9DF80010602902D260A09C
:1024D00003F0B0FD0A2001F0F5F88DF8004001226C
:1024E00069462846FFF73AFF0020FEBD2DE9F14F6F
:1024F0005C4E00244FF00A09307884B0401CC0B212
:10250000B0FBF9F209FB1201574DA046307009B13A
:102510000A2871D248F24E1B012204A95846FFF73F
:1025200046FF9DF810004FF00007010755D000F05E
:102530000F01062951D2FF2088408DF80800C043C2
:1025400040F0C000DFF8248185F820004FF0010A38
:1025500095F820100AFA04F0014227D044480422DA
:1025600001A930F81400FFF722FF98F806009DF843
:10257000051000289DF8040000EB012105EB440044
:102580001DD0C1829DF806109DF80730B8F80020D4
:1025900001EB0321511A818105EB44002346C18AD6
:1025A00000918289194633A003F044FD641CE4B213
:1025B000052CCDD3A9894FF0010849B10CE08181E8
:1025C0009DF806109DF8072001EB0221C182E3E788
:1025D000E88A08B98DF8107037709DF81000010670
:1025E0000AD500F00F00062806D28DF808700122E7
:1025F00002A95846FFF7B2FE9DF8100000F08F00C8
:1026000080280ED195F82000010602D520F0800028
:1026100005E04FF6FF71A981E98200F0E00085F83E
:1026200020003078F02801D986F8009005B04046A7
:10263000BDE8F08F002070470010014000002242EA
:102640004354502049443A25730D0A003931310072
:1026500044656661756C74205665723A25640D0A8E
:10266000000000008400002030000020CC0000208A
:102670008E740008785B25645D3A25642C795B25AF
:10268000645D3A25640D0A000A2001F004B838B5EB
:102690000121042001F07BFB0520ADF80000102093
:1026A0008DF803000320864C8DF802006946204611
:1026B00001F085F90521204601F0EBF98148016818
:1026C0004FF20F0291430160016843F2030211438C
:1026D0000160C16841F00201C160C16841F00801B8
:1026E000C16038BD70B57648016821F47061016041
:1026F000016841F440710160734C0120C4F8880105
:10270000C4F880010A2004F5C07400F0C4FF00255D
:10271000A5600A2000F0BFFF256070BD70B5684855
:10272000016821F470610160016841F44071016049
:10273000654C0020C4F88001C4F888010A2004F523
:10274000C07400F0A8FF012525600A2000F0A3FF57
:10275000A56070BD70B55A480024016821F470610D
:102760000160016841F400610160574D0126C5F820
:102770008861304600F08FFFC5F88061012000F0CD
:102780008AFF07E0641CE4B2FA2C03D9FFF7C6FF06
:10279000012070BDD5F808010028F3D1C5F88001EB
:1027A00070BD70B5484C0025C4F88051444801689C
:1027B00021F470610160016841F440710160C4F866
:1027C00088510A2004F5C07400F065FF01202060E4
:1027D0000A2000F060FF256070BD70B53A4C0026FD
:1027E000C4F880613648016821F4706101600168B5
:1027F00041F4407101600125C4F888510A2004F5B4
:10280000C07400F048FF25600A2000F044FF2660F5
:1028100070BD2DE9F04105462948016821F4706139
:102820000160016841F440710160274E0027C6F83D
:1028300080713C464FF00108E809C6F88801680637
:10284000050EC6F880810A2000F025FFC6F88071C9
:102850000A2000F020FF641CE4B2082CECD3BDE891
:10286000F0812DE9F047814615480024016821F4E4
:1028700070610160016841F400610160124E2546FB
:1028800027464FF00108C6F880711E2000F003FFB4
:10289000C6F880816006040ED6F8080108B1641CF1
:1028A000E4B26D1CEDB2082DEDD3B9F1000F04D0E8
:1028B000FFF777FF2046BDE8F087FFF78EFFF9E7C7
:1028C00000080140001001400000214270B5F14DA8
:1028D0000024C5F89041902005F5C87500F049FA2C
:1028E000002000F046FA002000F043FA002000F03B
:1028F00040FAFF2000F03DFA44EA0024FF2000F0F7
:1029000038FA20430121296070BD38B50121042027
:1029100001F03DFA1020ADF800008DF8030003200F
:10292000DD4C8DF802006946204601F048F8102180
:10293000204601F0AEF800F043FA002000F00CFA57
:10294000FFF7C4FFD5490880A0F5BC41173902D173
:10295000D3A003F06FFB38BD10B5CE4C0020C4F8F7
:102960009001052004F5C87400F003FAFF2000F080
:1029700000FA0121216010BD70B5C64C002105464A
:10298000C4F89011012004F5C87400F0F2F928464B
:1029900000F0EFF90120206070BD10B5BD4C0020A3
:1029A000C4F89001062004F5C87400F0E2F9012093
:1029B000206010BD10B5B74C0020C4F89001042071
:1029C00004F5C87400F0D5F90120206010BD2DE990
:1029D000F041B04D0646002017460C46C5F8900160
:1029E000032005F5C87500F0C4F9C4F3074000F0F2
:1029F000C0F9C4F3072000F0BCF9E0B200F0B9F967
:102A00003946304600F026FA01202860BDE8F08102
:102A100010B5FFF7A1FFC007FBD110BD2DE9F041B4
:102A200015460C460646FFF7B8FF9A4F0020C7F838
:102A30009001022000F09DF9C4F3074000F099F9DD
:102A4000C4F3072000F095F9E0B200F092F90024F9
:102A500004E0305D00F08DF9641CA4B2AC42F8D300
:102A60000120C7F89001BDE8F041D1E72DE9F04120
:102A70000746C8B2C0F580740E461546A24200D87B
:102A800014464FF48078224631463846FFF7C6FF99
:102A9000A542BBD0281B2744264485B24446A54204
:102AA000F1D82C46EFE7B1E770B50403FFF775FFE7
:102AB000FFF7AEFF774D0020C5F89001202005F507
:102AC000C87500F056F9C4F3074000F052F9C4F39A
:102AD000072000F04EF9E0B200F04BF90120286029
:102AE000BDE8704094E72DE9F05FC1F30B06DFF815
:102AF000CC810F0BC6F580548A4681461546A2420A
:102B000000D8144639038B464FF480524046FFF7F5
:102B10005EFF002006E0321818F80210FF2903D1EA
:102B2000401C80B2A042F6D3A04221D23846FFF723
:102B3000BBFF002006E019F800208319401C08F8AC
:102B4000032080B2A042F6D359464FF4805240464B
:102B5000FFF78CFFA5420FD0281BA144A2440026FA
:102B600085B24FF480547F1CA542CBD82C46C9E7D0
:102B7000224651464846EBE7BDE8F09F10B5FFF707
:102B80000CFFFFF745FF434C0020C4F89001C7201D
:102B900004F5C87400F0EDF801202060BDE8104095
:102BA00036E710B53B4C0020C4F89001B92004F57D
:102BB000C87400F0DEF801202060BDE8104003205A
:102BC00000F069BD10B5334C0020C4F89001AB2073
:102BD00004F5C87400F0CDF801202060BDE8104075
:102BE000032000F058BD2DE9FF5FDFF8D4B0DDE928
:102BF0000E6ADDE910979BF800001C4615468846D2
:102C000028B90120FDF72CFF284625460446234617
:102C10002A4641460098FDF783FFFDF78FFE1D49C8
:102C20000120C1F8AC0127490020C1F8B001B0462D
:102C3000064616E04A4641463846FFF7C8FEC844F5
:102C400000240BE038193D5D407845EA0025280A4C
:102C500000F060F9E8B200F05DF9A41C4C45F1D336
:102C6000761C5645E6D3184C002108466388228816
:102C7000FDF756FF9BF80000002808D1A079012835
:102C800005D104B00020BDE8F05FFDF7E9BEBDE866
:102C9000FF9F000000002142000801408600002044
:102CA000D0BEC6ACD0CDBAC55A42323556513132FB
:102CB00038415349470D0A0D0A000000D600002094
:102CC0000200002000802142CC0000202DE9F043CA
:102CD00001218BB0084601F051F8DFF81492484604
:102CE00001F072FB834D00246E1500958027CDE91D
:102CF0000246CDE904474FF40058CDE90848069450
:102D00000794694648460A9401F0CBFBDFF8E0914E
:102D100009F11409484601F057FB10200290009574
:102D2000CDE90364CDE90574CDE908480794694607
:102D300048460A9401F0B5FB6E4C01220C3C11464A
:102D4000204601F0C7FA01220221204601F0C2FA12
:102D50000BB00020BDE8F083014666480C380288BD
:102D600022F03802028002880A430280012101F029
:102D700091BA70B55F4D002406460C3D03E0641C1B
:102D8000E4B2C82C0FD80221284601F0EFFA00283F
:102D9000F5D03146284601F0A5FA002405E0641C70
:102DA000E4B2C82C01D9002070BD0121284601F0F1
:102DB000DDFA0028F3D0284601F096FAC0B270BDC3
:102DC00010B586B00121042000F0E1FF01210803C5
:102DD00000F0DDFFE020ADF8140018208DF817009A
:102DE0000320454C8DF8160005A9204600F0E7FDAC
:102DF000E021204600F04DFE0020ADF800004FF429
:102E00008271ADF80210ADF804000221ADF8061091
:102E10000121ADF808104902ADF80A103821ADF8CB
:102E20000C10ADF80E00334C0720ADF810000C3C30
:102E30006946204601F0B2F90121204601F02AFA44
:102E4000FF20FFF796FF0820FFF786FFFFF73EFF02
:102E500006B010BDF8B5264CFF221C3C8DF80020B2
:102E60002162A0626163C4F83CD0206B20F0800036
:102E700020631F4D0121284601F03DFB1C4E01211E
:102E80001436304601F037FB202001F04CFB0028BF
:102E9000FAD0202001F055FB4FF4007001F051FBF7
:102EA0000021284601F027FB0021304601F023FBDA
:102EB000206B40F0800020630020F8BD70B50C4A04
:102EC0001C3A5163D0630A4C01211434204601F0AE
:102ED00012FB6515284601F026FB0028FAD028468B
:102EE00001F02FFB0021204601F005FB002070BD02
:102EF0001C0002400C300140000801400146884897
:102F0000028822F03802028002880A4302800121EE
:102F100001F0C0B970B506460024814D03E0641C81
:102F2000E4B2C82C0FD80221284601F01FFA00286D
:102F3000F5D03146284601F0D5F9002405E0641C9F
:102F4000E4B2C82C01D9002070BD0121284601F04F
:102F50000DFA0028F3D0284601F0C6F9C0B270BDC2
:102F600030B587B00121082000F011FF012188034E
:102F700000F016FF4FF46044ADF8144018208DF8AF
:102F800017000320674D8DF8160005A9284600F0AC
:102F900016FD2146284600F07CFD0020ADF800001B
:102FA0004FF48271ADF80210ADF804000221ADF8C3
:102FB00006100121ADF808104902ADF80A103821B9
:102FC000ADF80C10ADF80E000720554CADF8100010
:102FD0006946204601F0E2F80121204601F05AF945
:102FE000FF20FFF797FF0820FFF788FF07B030BDED
:102FF0002DE9F04301218BB0084600F0BFFEDFF859
:103000002891484601F0E0F9454D00240C356E1535
:1030100000958027CDE90246CDE904474FF40058DA
:10302000CDE9084806940794694648460A9401F099
:1030300038FADFF8F49009F11409484601F0C4F9B0
:10304000102002900095CDE90364CDE90574CDE927
:1030500008480794694648460A9401F022FA304C21
:1030600001221146204601F035F9012202212046B5
:1030700001F030F90BB00020BDE8F083F8B52A4C20
:10308000FF22443C8DF80020A1642065E165C4F86E
:1030900064D0A06D20F08000A065234D012128465A
:1030A00001F029FA204E01211436304601F023FAAE
:1030B0004FF40057384601F036FA0028FAD0384667
:1030C00001F03FFA4FF4003001F03BFA00212846AE
:1030D00001F011FA0021304601F00DFAA06D40F028
:1030E0008000A0650020F8BD70B50F4A443AD16554
:1030F00050660D4C01211434204601F0FCF94FF4C8
:103100000035284601F00FFA0028FAD0284601F0D1
:1031100018FA0021204601F0EEF9002070BD0000F1
:1031200000380040000C0140440002402DE9F84FF7
:1031300083461F4615460C468946580700D0012095
:1031400000EBD7007843C0B20090102F03D0182FA7
:1031500001D0202F39D1184603F004FC5FEA000AA1
:1031600033D001463A46284600F0B3F8002023E069
:103170001AF808600025300601D50B9A03E00A987A
:1031800028B97448028821465846FDF75FFC70064E
:10319000641C060EA4B2A4EB0900B84205D10BF1E1
:1031A00001004C461FFA80FB03E06D1CEDB2082DB8
:1031B000E1D308F10100C0B2009980468842D7D31C
:1031C0005046BDE8F84F03F0A5BBBDE8F88F2DE9E8
:1031D000FE4F0446DDE90C6700F0FF08C8B202901C
:1031E00010190D461FFA80FA58194FF000091FFAFE
:1031F00080FB1EE0B9F1000F20D008EB0A00C01BD5
:103200004FF00009A04202DAE81985B2444602985C
:103210005844C01BA8420FDBDDE90E01CDE90001D7
:103220003B46324629462046FFF780FFE01984B22C
:10323000B61C30780028DDD1BDE8FE8F802816D975
:103240004FF00109F5E7544502D3E819444685B229
:103250005D45EED20F990020CDE900013B4629469D
:103260002046FDF744FE04EB570084B2761C32780A
:10327000A2F120005E28DCD8E5E72DE9FF47804673
:10328000DDE90C761C4615468946104602F034FAF4
:103290006108414388B201222F49B84208D90396F8
:1032A0000095CDE901424B880A88494640460CE02A
:1032B00003960095CDE90142381A00EBD0704B8897
:1032C0000A8808EB500080B24946FFF780FFBDE84E
:1032D000FF8730B40C4601461546500700D0012048
:1032E00000EBD5006843C2B208784B78812809D337
:1032F000402B07D3FF2B05D0FF2803D07F2B0CD208
:10330000403B0BE00023184603E05B1C04F8010B74
:10331000DBB29342F9D330BC7047413B8138D9B21C
:10332000C0B2C0EB401303EB801001EB40000B492F
:103330005043102D096805D0182D08D0202DEAD152
:10334000084407490144204630BCFFF740BB08440D
:103350000449F7E720000020CC000020B80000203E
:10336000A0FD250080B00B002DE9F04115460E466A
:1033700004460027FFF7B6F9B0480078FFF749FA8E
:10338000FFF7E8F9200AFFF744FAFFF7E3F9E0B2A4
:10339000FFF73FFAFFF7DEF9002408E0305DFFF7A2
:1033A00038FAFFF7D7F9070003D1641CE4B2AC4246
:1033B000F4D3FFF7B3F93846BDE8F0812DE9F041C9
:1033C00015460F460446FFF78DF99C4E3078FFF7FF
:1033D00020FAFFF7BFF9200AFFF71BFAFFF7BAF947
:1033E000E0B2FFF716FAFFF7B5F9FFF77BF970784F
:1033F000FFF70FFAFFF7AEF900246E1E09E0B442A2
:1034000001D0012000E00020FFF72BFA3855641CA2
:10341000E4B2AC42F3D3BDE8F041FFF77FB93EB56B
:103420000121102000F0B3FC4FF44044ADF80840F7
:1034300010208DF80B000320814D8DF80A0002A9A1
:10344000284600F0BCFA2146284600F022FBFFF790
:103450001EF97C4C0020C4F8B8010A2004F5DC7485
:1034600000F030F9012020600A2000F02BF94FF421
:103470000044ADF8084028208DF80B0002A928462A
:1034800000F09DFA2146284600F005FB642000F07C
:1034900019F94DF20114042269462046FFF764FF32
:1034A0004DF20425042269462846FFF787FF9DF860
:1034B0000300012803D19DF80200482818D05F4975
:1034C000B42004220870B520487069462046FFF7F2
:1034D0004BFF042269462846FFF770FF9DF8030062
:1034E000322803D19DF80200402801D001203EBDC2
:1034F00000203EBD2DE9F14F504E00244FF00A0947
:10350000B07884B0401CC0B2B0FBF9F209FB1201E4
:103510004D4DA046B07009B10A2873D24DF2050B8B
:10352000012204A95846FFF749FF9DF810004FF00B
:103530000007010759D000F00F01062975D2FF20BE
:1035400088408DF80800C04340F0C000DFF8FC80E0
:1035500085F820004FF0010A95F820100AFA04F0CF
:10356000014226D03A48042201A930F81400FFF79E
:1035700025FF98F8060000289DF8040022D09DF849
:103580000610000100EB111205EB4400C2829DF809
:10359000072001EB0221B8F80020511A818105EBC8
:1035A00044002346C18A00918289194629A002F06D
:1035B00041FD641CE4B2052CCED3A9894FF001086B
:1035C00071B111E001019DF8060001EB101205EB4D
:1035D00044018A819DF8052062F31F10C882DEE74E
:1035E000E88A08B98DF81070B7709DF8100000F0E7
:1035F0000F00062806D28DF80870012202A958464D
:10360000FFF7B2FE9DF8100000070ED195F82000DC
:10361000010602D520F0800005E04FF6FF71A98178
:10362000E98200F0E00085F82000B078F02801D9A8
:1036300086F8029005B04046BDE8F08F8800002073
:10364000001001400000224230000020CC00002089
:1036500098740008785B25645D3A25642C795B25B5
:10366000645D3A25640D0A0010B56FF0040000F0A7
:103670003CF9204820490068B0FBF1F01F49C0B276
:1036800000EB40020870C2EBC0104FF6FF7202EA76
:10369000C000488010BD1949097848434FF0E02127
:1036A000486100238B61086940F0010008610869E6
:1036B000C20701D0C003FAD5086920F001000861F3
:1036C0008B6170470D49498848434FF0E0214861BC
:1036D00000238B61086940F0010008610869C20796
:1036E00001D0C003FAD5086920F0010008618B61A0
:1036F000704700000800002000127A008C000020B3
:1037000010B54FF4A06000F0ABF8BDE8104001F038
:1037100097BE0000704745490A885206FCD5434AC7
:10372000C1B2121D11807047F0B5064687B0012165
:1037300044F2040000F02BFB3C4D284600F076FBE1
:103740006815ADF8100003248DF812401820384F8A
:103750008DF8130004A9384600F031F92815ADF8AA
:10376000100004208DF8130004A9384600F027F952
:1037700025208DF814008DF815408DF81640012095
:103780008DF8170005A800F070F80021ADF80810BA
:10379000ADF804100C20ADF80610ADF80C10ADF823
:1037A0000A0000966946284600F070FB012240F2AC
:1037B0002551284600F0E7FB0121284600F0D9FBFF
:1037C00007B0F0BD10B5194C40F22551204600F06D
:1037D00091FC002815D0204600F025FC154AC1B206
:1037E000108803040DD4144B44040BD50D2915D0B7
:1037F0000A2903D0C0F30D00195414E040F400402E
:10380000108010BD0D2909D0C0F30D04401C80B2FA
:1038100019551080C728F4D90020F1E740F4804002
:10382000C0F30D041955401CEAE7000000380140C0
:103830000008014098000020D6100020064880476C
:1038400006480047FEE7FEE7FEE7FEE7FEE7FEE785
:10385000FEE7FEE7FEE7FEE79106000831010008FB
:103860002849084328490860704730B50F23C278BB
:1038700001780125F2B1244A126801F1E02102F435
:10388000E062C2F5E062120AC2F10404D340427859
:10389000A24084781C401443220181F8002400785F
:1038A00000F01F018D404009800000F1E020C0F8C9
:1038B000005130BD01F01F0085404809800000F133
:1038C000E020C0F8805130BD104A114001430E483D
:1038D000001F016070470C4A121D0029116801D0B9
:1038E000014300E08143116070474FF0E02104285C
:1038F000086903D020F004000861704740F004001C
:10390000FAE700000000FA050CED00E080FFFF1F61
:103910008F4910B5884206D10121042000F049FAF0
:10392000002104203BE08B49884206D10121082078
:1039300000F03FFA0021082031E08749884206D193
:103940000121102000F035FA0021102027E08349E2
:10395000884206D10121202000F02BFA00212020EE
:103960001DE07F49884206D10121402000F021FA64
:103970000021402013E07B49884206D101218020AC
:1039800000F017FA0021802009E0774988420AD127
:1039900084150121204600F00CFA00212046BDE8E4
:1039A000104000F006BA10BD10B50121084600F025
:1039B00000FA0021BDE81040012000F0FAB9F0B58E
:1039C000CC78002204F00F03E40601D58C78234361
:1039D0000C784FF00F0C14F0FF0F4FF0010E1BD0BE
:1039E00005680E880EFA02F42640A64210D1960011
:1039F0000CFA06F725EA070703FA06F5CE783D43E9
:103A0000282E02D0482E02D002E0446100E004617A
:103A1000521C082AE5D305600A88FF2A1CD944688D
:103A2000002202F108060EFA06F50E882E40AE427C
:103A30000ED196000CFA06F7BC4303FA06F7CE78CF
:103A40003C43282E00D14561CE78482E00D1056137
:103A5000521C082AE5D34460F0BD4FF6FF71018087
:103A6000022181700421C1707047024600209268D3
:103A70000A4200D001207047806880B27047024639
:103A80000020D2680A4200D001207047C06880B28E
:103A9000704701617047416170470AB10161704729
:103AA00041617047C160704741F480328261816139
:103AB00082618169806970472C4B10B51A684FF696
:103AC0008074224042EA00100843186010BD284963
:103AD000C8617047F0B5254C002801DAE36900E0C1
:103AE0006368450D2E0185B2C0F30157B540C0F3A0
:103AF0000342032F05D0C6020AD503269640B343DE
:103B000007E023F07062636823F07063636002E093
:103B1000AB4343F0706201B12A43002801DAE2614D
:103B2000F0BD6260F0BD10B58A0721F003040F49B3
:103B3000120F21440F238C6893409C438C608B6848
:103B4000904003438B6010BD0949C1F8DC00704709
:103B500000080140000C0140001001400014014029
:103B600000180140001C01400020014000000140FD
:103B700000002042A548016841F001010160416850
:103B8000A34A114041600168A24A114001600168E6
:103B900021F480210160416821F4FE0141604FF46D
:103BA0001F018160704799490A6822F480320A60D7
:103BB0000A6822F480220A60B0F5803F07D0B0F591
:103BC000802F03D1086840F4A0200860704708687F
:103BD00040F48030F9E70346002059098B4A012957
:103BE0000AD002290AD0516A03F01F020123934030
:103BF0000B4200D0012070471168F5E7116AF3E726
:103C000018B500204FF4A06400903120FFF7E3FFC7
:103C10000099491C0091A14201D00028F5D0312023
:103C2000FFF7D9FF002800D0012018BD774A11689E
:103C300021F0F80141EAC000106070477649086041
:103C40007047724B5A68084322F47C121043586044
:103C500070477149086670476C4A516821F003014A
:103C60000143516070476948406800F00C0070479C
:103C7000664A516821F0F001014351607047634A80
:103C8000516821F4E0610143516070475F4A516817
:103C900021F4605141EAC000506070475B4A00293E
:103CA000517A01D0014300E08143517270475A4973
:103CB000C1F8D8007047554A516821F4404101438A
:103CC000516070475149002281F8202081F820205E
:103CD000012802D0042802D1052081F82000704775
:103CE0004E490860704749490A6A02430A627047B0
:103CF0004A4944390860704730B5444A5168484BD6
:103D000011F00C0103D0042901D0082901D003606F
:103D100012E05168536801F470114FF0020413F47B
:103D2000803F04EB914102D053689B0301D53D4B8A
:103D300000E03B4B5943016051680F2303EA111126
:103D4000394B5C5C0168E14041605468072505EA35
:103D500014241C5D21FA04F48460546805EAD42418
:103D60001B5DD940C1605268032303EA92322E4B97
:103D70001B1F9A5CB1FBF2F1016130BD234A00299F
:103D8000516901D0014300E08143516170471F4AEE
:103D90000029916901D0014300E08143916170479E
:103DA0001A4A0029D16901D0014300E08143D16161
:103DB0007047164A0029D16801D0014300E08143D1
:103DC000D1607047114A0029116901D0014300E018
:103DD00081431161704711494039086070470E49AD
:103DE000C86470470949C87170470848416A41F082
:103DF000807141627047054A0146002092680A427C
:103E000000D00120704701498872704700100240BD
:103E10000000FFF8FFFFF6FE00004242800442422D
:103E200000127A0000093D00A4000020C44910B52A
:103E300088420AD101218C032046FFF7BAFF2046B1
:103E4000BDE810400021FFF7B4BFBE49884202D14F
:103E500001214C0410E0BC49884202D101218C04AC
:103E60000AE0BA49884202D10121CC0404E0B849F1
:103E700088420AD101210C052046FFF7A3FF204606
:103E8000BDE810400021FFF79DBF10BD30B50446CE
:103E9000008A85B00D464CF6FF710840E988014361
:103EA0002182A0894EF6F3110840A9882A8911437E
:103EB0006A8902431143A181A08A4FF6FF4108405D
:103EC000A9890143A1826846FFF716FF9C488442F6
:103ED00001D1039800E00298A189090400EBC00118
:103EE00001EB0010296801D5490000E08900B0FB12
:103EF000F1F06422B0FBF2F109010B096FF0180533
:103F00006B4300EB8300A3891D044FF0320306D5F9
:103F100003EBC000B0FBF2F000F0070005E003EB9C
:103F20000010B0FBF2F000F00F000843208105B054
:103F300030BD4FF41651016000218180C1800181A4
:103F40000C2242818181704710B5028A4FF2FF0333
:103F50001A400B884C8823438C88C9880C43234320
:103F60001343038210BD0021018041808180C18004
:103F700070470029818902D041F4005101E021F409
:103F800000518181704710B5C1F3421301F01F0445
:103F90000121A140012B07D0022B07D01430002AA9
:103FA000026805D00A4304E00C30F8E71030F6E769
:103FB0008A43026010BD002A828A01D00A4300E0D1
:103FC0008A4382827047028A22F00F020282028AAA
:103FD0000A4302827047828922F4006282818289C8
:103FE0000A43828170470029818902D041F0020191
:103FF00001E021F0020181817047028A22F0200253
:104000000282028A0A43028270470029018A02D092
:1040100041F4804101E021F4804101827047C1F305
:104020000801818070478088C0F30800704781894B
:1040300041F0010181817047028BD2B20283028B71
:1040400042EA012101837047028B02F47F4202831E
:10405000028B0A43028370470029818A02D041F013
:10406000200101E021F02001818270470029818A2E
:1040700002D041F0100101E021F01001818270476F
:104080000029818A02D041F0080101E021F00801F5
:10409000818270470029818902D041F4004101E00A
:1040A000C1F30E01818170470029818A02D041F459
:1040B000006101E021F4006181827047828A22F070
:1040C00004028282828A0A43828270470029818A9E
:1040D00002D041F0020101E021F00201818270472B
:1040E0000246002012880A4200D001207047C943CE
:1040F0000180704770B501F01F0501260024C1F34F
:10410000421306FA05F2012B0FD0022B0FD0838A3F
:104110004FEA11210088134206FA01F600EA060070
:1041200001D000B10124204670BD8389F0E7038AE5
:10413000EEE70A0A01219140C9430180704700005F
:10414000003801400044004000480040004C00405E
:1041500000500040994910B588420AD184140121C9
:104160002046FFF726FE2046BDE810400021FFF75D
:1041700020BE9349884202D10121041404E09149F0
:1041800088420AD10121C4132046FFF71BFE2046B6
:10419000BDE810400021FFF715BE10BD30B5028804
:1041A0004C8802F441530A88CD8822438C882C43E2
:1041B00022430C8922434C8922438C892243CC8997
:1041C00022431A430280828B22F400628283098A8E
:1041D000018230BDF0B505460C4602200021AA8BB5
:1041E00085B001264FF240031A40AA832884AF8B82
:1041F000A268022A21D0A08800B102266846FFF7F3
:104200007BFDE1880098B1F5007F2CD07101B0FBF7
:10421000F1F000EB8000A1684000B0FBF1F0401D20
:1042200080B20A21B0FBF1F000F00101401A4FF614
:10423000FF72C0F34F0002EA0121821EFE2A01D361
:1042400002200021E288084302432A8420886188F2
:10425000A2890843A18811430843384340F4006011
:10426000A88305B0F0BD000AD3E70021018041809A
:104270008180C180018141818181C18107210182C9
:1042800070470021018041808180C18002228260CC
:10429000818170470029018802D041F0400101E08E
:1042A00021F04001018070470029818B02D041F448
:1042B000806101E021F48061818370470909012355
:1042C0008B40002A828899B201D00A4300E08A43D9
:1042D00082807047002A828801D00A4300E08A4326
:1042E000828070478181704780897047A1F57E4246
:1042F0000188FF3A02D041F4807101E021F480711D
:10430000018070470029818802D041F0040101E05A
:1043100021F0040181807047028822F4006202804B
:1043200002880A4302807047018841F4805101806D
:1043300070470029018802D041F4005101E021F4C6
:10434000005101807047012901D0008B7047808A9D
:104350007047008A7047B1F5804F018803D021F47F
:1043600080410180704741F48041FAE70246002015
:1043700012890A4200D001207047C9430181704769
:1043800030B501F00F030125024605FA03F40020C1
:10439000A3B2090905FA01F49188A4B21289214057
:1043A0001A4202D0002900D0012030BD01F00F02D6
:1043B00001219140C9430181704700000030014054
:1043C00000380040003C004001684FF6FE7211408A
:1043D00001600021016041608160C1606A496A4AF0
:1043E0000839904203D1486840F00F0006E0664A61
:1043F0001432904204D1486840F0F00048607047A1
:10440000614A2832904203D1486840F47060F5E771
:104410005D4A3C32904203D1486840F47040EDE779
:10442000594A5032904203D1486840F47020E5E781
:10443000554A6432904203D1486840F47000DDE789
:10444000514A7832904203D1486840F07060D5E715
:104450004E4A111F904203D1086840F00F0006E059
:104460004A4A1432904204D1086840F0F0000860D3
:104470007047464A2832904203D1086840F4706081
:10448000F5E7424A3C32904203D1086840F470405C
:10449000EDE73E4A50329042EAD1086840F470207D
:1044A000E5E730B5026847F6F0739A430C6A8B680B
:1044B0002343D1E904452C4323438C692343CC692E
:1044C00023434C6A23438C6A234313430360CA6823
:1044D00042600A6882604968C16030BD00210160A5
:1044E00041608160C160016141618161C1610162BE
:1044F0004162816270470029016802D041F00101E8
:1045000002E04FF6FE72114001607047002A026817
:1045100001D00A4300E08A4302607047416070475F
:10452000406880B2704702460020D10002D517498A
:10453000083901E0144908390968114200D0012006
:104540007047C10003D51149091F086070470E4923
:1045500008394860704702460020D10002D50B4957
:10456000083901E0084908390968114200D00120E2
:104570007047C10003D50549091F0860704702490B
:1045800008394860704700000800024008040240F3
:10459000F94910B5884202D10121C41486E0B0F176
:1045A000804F09D0F54988420DD101210220FFF743
:1045B00009FC0021022064E001210846FFF702FC0B
:1045C000002101205DE0EE49884206D1012104204E
:1045D000FFF7F8FB0021042053E0EA49884206D1A6
:1045E00001210820FFF7EEFB0021082049E0E64901
:1045F000884206D101211020FFF7E4FB00211020A2
:104600003FE0E249884206D101212020FFF7DAFB92
:104610000021202035E0DE49884202D101214414E6
:1046200044E0DC49884202D10121CC043EE0DA4971
:10463000884202D101210C0538E0D849884202D1D4
:1046400001214C0532E0D649884206D101214020A3
:10465000FFF7B8FB0021402013E0D249884206D181
:1046600001218020FFF7AEFB0021802009E0CE4928
:1046700088420AD1841501212046FFF7A3FB0021BF
:104680002046BDE81040FFF79DBBC849884202D1D3
:1046900001210C040AE0C649884202D101214C04E0
:1046A00004E0C44988420AD101218C042046FFF766
:1046B00080FB2046BDE810400021FFF77ABB10BD0B
:1046C00030B50288AC4CB24DA0420DD0A8420BD000
:1046D000B0F1804F08D0A94B984205D0A84B984222
:1046E00002D0A84B984203D122F070034A881A43A3
:1046F000A54B984206D0A54B984203D022F44073B4
:10470000CA881A4302808A8882850A880285A04264
:104710000AD0A84208D0A54A904205D0A44A9042A7
:1047200002D0A44A904201D1097A018601218182F6
:1047300030BD30B5028C22F001020284028C8388E5
:10474000048B22F0020224F073050C882C430D899F
:1047500015434A882A43884DA8420BD08C4DA84265
:1047600008D0924DA84205D0914DA84202D0914D5B
:10477000A8420DD122F008054A8923F440732A4348
:1047800022F004058A882A438D891D43CB892B4357
:1047900083800483C9888186028430BD70B5028C11
:1047A00022F010020284028C8388048B0D8824F48A
:1047B000E6464FF6FF7404EA052535430E8922F0DC
:1047C000200204EA061616434A8804EA021232431B
:1047D000694EB04202D06E4EB04215D122F0800632
:1047E0004A8923F4406304EA0212324322F040066D
:1047F0008A8804EA021232438E8904EA86061E433E
:10480000CB8904EA8303334383800583C988018706
:10481000028470BD70B5028C22F480720284028C16
:104820008388848B0D8824F0730425430E894FF60A
:10483000FF7422F4007204EA062616434A8804EA4A
:10484000022232434C4EB04202D0514EB04215D1FA
:1048500022F400664A8923F4405304EA02223243D8
:1048600022F480668A8804EA022232438E8904EAAE
:1048700006161E43CB8904EA0313334383808583E2
:10488000C9888187028470BD70B5028C22F4805281
:104890000284058C8288838B0C8823F4E6464FF6CD
:1048A000FF7303EA0424344325F400560D8903EA18
:1048B000053535434E8803EA06362E432E4DA84271
:1048C00002D0334DA84205D122F480458A8903EAFB
:1048D00082122A4382808483C988A0F8401006840B
:1048E00070BD828B22F440628283828B4FF6FF730D
:1048F00003EA01210A4382837047828B22F00C0273
:104900008283828B0A4382837047028B22F4406247
:104910000283028B4FF6FF7303EA01210A430283ED
:104920007047F0B5048C24F010040484078B048CC9
:104930004FF6FF7527F4734705EA03333B4305EA57
:1049400002221A430C4B05EA011698420ED0104B76
:1049500098420BD0B0F1804F08D0084B984205D058
:10496000074B984202D0074B984225D124F02001F2
:10497000314341F0100124E0002C014000040040CC
:1049800000080040000C00400010004000140040EF
:1049900000340140004C01400050014000540140EF
:1049A00000180040001C0040002000400040014072
:1049B000004401400048014024F0A0030B4343F0B1
:1049C000100102830184F0BD028B22F00C020283ED
:1049D000028B0A430283704770B5048C24F00104F3
:1049E0000484058B048C4FF6FF7606EA0313134309
:1049F00025F0F305F84A2B4390420ED0F74A904237
:104A00000BD0B0F1804F08D0F54A904205D0F54A5E
:104A1000904202D0F44A904202D124F0020201E016
:104A200024F00A020A4342F001010383018470BDAD
:104A30002DE9F84F0D4604460888E74FDFF89CC380
:104A4000DFF89C83DFF89C934988AA882B894FF074
:104A5000804A48B304282FD04FF6FF7608289346A3
:104A600032D0208C9E4620F480502084A38B208C52
:104A700006EA0132009223F4734306EA0B221A433A
:104A800006EA0E331343BC420AD0644508D05445AD
:104A900006D0444504D04C4502D0D34A944242D17A
:104AA00020F40050009940E02046FFF795FFE98888
:104AB0002046BDE8F84F87E72046FFF732FFE98838
:104AC0002046BDE8F84F20E7208C20F48070208439
:104AD000B4F81CE0208C06EA031306EA01222EF04B
:104AE000F30E43EA0B0343EA0E030092BC420AD0E2
:104AF000644508D0544506D0444504D04C4502D006
:104B0000B94A944203D120F40070009901E020F4E6
:104B10002060084340F48070A3832084E988204605
:104B2000BDE8F84FE9E620F40240084340F4805025
:104B3000A3832084E9882046BDE8F84FD1E62DE91B
:104B4000F0410C46002649880746012501B9022696
:104B5000A288012A00D1022520882389002838460E
:104B600010D0FFF7DEFEE1883846FFF7CEFE23893E
:104B70002A4631463846FFF72FFFE1883846BDE820
:104B8000F04121E7FFF728FFE1883846FFF71CFFD7
:104B900023892A4631463846FFF7C3FEE188384666
:104BA000BDE8F041B1E610B50A884B88CC881A43BD
:104BB0008B8823431A430B891A434B8989891A43EB
:104BC0000A43A0F8442010BD4FF6FF7181800021F8
:104BD0000180C180418001727047002101804180C5
:104BE0008180C180018141818181C1817047002123
:104BF0000180418001228280C180018170470021B3
:104C0000018041808180C180018141818181704723
:104C10000029018802D041F0010101E021F00101E9
:104C200001807047002930F8441F02D041F4004150
:104C300001E0C1F30E0101807047002A828901D092
:104C40000A4300E08A4382817047818270471143A2
:104C5000A0F848107047002A828901D00A4300E07A
:104C60008A4382817047018921F0070101817047E1
:104C7000028922F070020A430281704700B50346A0
:104C8000FFF7F6FF188940F00700188100BD70B5E6
:104C900016460D46602904464FF0010231460AD0FF
:104CA000FFF79AFE29462046FFF7E2FF208940F0F1
:104CB0000700208170BDFFF734FEF3E730B50489AB
:104CC0004FF6FF7505EA03231343E4B20B43234376
:104CD000038130BD10B50446FFF7F0FF208940F096
:104CE0007700208110BD10B50446FFF7E7FF20894B
:104CF00040F48040208110BD018582827047028887
:104D000022F070020A430280704770B50589048B57
:104D1000068C25F007050D434FF6FC410C4040F290
:104D200001110C434FF6FF7101EA031126F0220630
:104D30001143314305810483018470BD028B22F04D
:104D400070020A4302837047028B4FF6FF7322F40E
:104D5000E04203EA0121114301837047828B22F074
:104D600070020A4382837047828B4FF6FF7322F4EE
:104D7000E04203EA01211143818370470029018841
:104D800002D041F0800101E021F0800101807047F4
:104D90000029818802D041F0040101E021F00401E2
:104DA000818070470029818802D041F0080101E02C
:104DB00021F00801818070470029818802D041F0EC
:104DC000010101E021F0010181807047028B22F096
:104DD00008020A4302837047002C0140003401405E
:104DE0000004004000080040000C0040028B4FF619
:104DF000FF7322F4006203EA012111430183EAE711
:104E0000828B22F008020A438283E4E7828B4FF60A
:104E1000FF7322F4006203EA012111438183DAE780
:104E2000028B22F004020A430283D4E7028B4FF67E
:104E3000FF7322F4806203EA012111430183CAE770
:104E4000828B22F004020A438283C4E7828B4FF6EE
:104E5000FF7322F4806203EA012111438183BAE7E0
:104E6000028B22F080020A430283B4E7028B4FF6E2
:104E7000FF73C2F30E0203EA012111430183AAE783
:104E8000828B22F080020A438283A4E7828B4FF652
:104E9000FF73C2F30E0203EA0121114381839AE7F3
:104EA000028C22F002020A43028494E7028C22F070
:104EB00008020A4302848EE7028C4FF6FF7322F049
:104EC000200203EA01111143018484E7028C4FF6AA
:104ED000FF7322F0800203EA0111114301847AE793
:104EE000028C4FF6FF7322F4007203EA0121114392
:104EF000018470E7028C4FF6FF7322F4006203EA2C
:104F000001211143018466E7028C4FF6FF7322F4FE
:104F1000005203EA0131114301845CE710B501231B
:104F2000048C8B409C430484038C8A401343038489
:104F300010BD10B50423048C8B409C430484038C67
:104F40008A401343038410BD30B50124058C00F161
:104F500018038C40A543058489B108290FD0091F87
:104F6000C1F34E001844016821F4E041016001687A
:104F70004FF6FF7303EA02221143016030BD03EBD9
:104F80005100016821F0700101600168F4E7002917
:104F9000018802D041F0020101E021F0020101800C
:104FA00019E70029018802D041F0040101E021F055
:104FB000040101800FE70029818802D041F08001BF
:104FC00001E021F08001818005E7028822F00802DB
:104FD000028002880A430280FDE6828822F0700285
:104FE000828082880A438280F5E6028922F00702E5
:104FF000028102890A430281EDE6028922F08002E1
:10500000028102890A430281E5E68184E3E6818523
:10501000E1E68186DFE60187DDE68187DBE6A0F851
:105020004010D8E6028822F44072028002880A43C7
:105030000280D0E6808ECEE6008FCCE6808FCAE676
:10504000B0F84000C7E6808CC5E6008DC3E6024696
:105050000020128A0A4200D00120BCE6C943018226
:10506000B9E602460020138A92890B4202EA010245
:1050700002D0002A00D00120ADE6C9430182AAE691
:105080000A7818B1487840EA02207047487842EA26
:10509000002070472DE9F0411C46DDE906751646F3
:1050A000FBF73EFDFBF74AFC6643002407F01007C0
:1050B00007E029463846FFF7E3FFFBF723FC641CB3
:1050C000AD1CB442F5D30A48002143880288BDE8EC
:1050D000F0410846FBF724BD1CB502F10804137823
:1050E000CDE9003493885288FFF7D4FF1CBD00003F
:1050F000CC00002030B58DB005460C460121084695
:10510000FEF73CFE0021FE48FFF7F5F9FC48FFF7EB
:105110005BF9FC48029003950020049005940690EA
:10512000802007900020089009900A904FF480504A
:105130000B9000200C9002A9F148FFF7B2F90F2064
:105140008DF8040003208DF805008DF8060001207D
:105150008DF8070001A8FEF788FB01224021E948ED
:10516000001FFEF728FF4FF47020FFF7EAF9012235
:105170000221E348FFF7CAF90121E148FFF7BBF933
:105180000DB030BD10B54FF40030FFF7F2F901203B
:10519000DD490870DD480078401CDC49087008468D
:1051A000007801280AD10221D948FFF7A3FF012086
:1051B000D84908700020D84908700CE00020D34975
:1051C00008700221D548FFF795FF0020D1490870EB
:1051D0000120D149087010BD7FB505460C4601215C
:1051E0000220FEF7DDFDADF80850ADF804400020C8
:1051F000ADF80A00ADF8060001A9C948FFF760FA4A
:1052000001221146C648FFF718FD1D208DF8000049
:1052100000208DF8010003208DF8020001208DF898
:1052200003006846FEF721FB0121BD48FFF7F0FCB3
:105230007FBD10B50121BA48FFF713FF58B1012116
:10524000B748FFF71AFFB748007820B1B648008882
:10525000401CB549088010BD70B50446DDE9045610
:1052600060181044184428443044C0B270BD1FB5C3
:10527000AEA000F0DFFED8E0B948008800F400409E
:1052800000287CD00020B6490880B6480078402825
:1052900075D1B44840780428FAD1B2484079B14970
:1052A0000979B04ECDE90010F378B2787178307892
:1052B000FFF7D2FF314689798842E9D130468078BC
:1052C0001A287DD10422152103A8FDF780FB9DF843
:1052D0000C4024029DF80D00044324029DF80E00AA
:1052E000044324029DF80F0004430422252103A84F
:1052F000FDF76DFB9DF80C502D029DF80D00054348
:105300002D029DF80E0005432D029DF80F00054368
:1053100095A000F08FFE00209EA11022CDE9002173
:105320000290A04A1288A2F1780606EBD672C2F368
:105330004F009C4A5288143A91B20C239622FBF7F4
:10534000C7FEFDF71BFC200E8DF80C00200C8DF81D
:105350000D00200A8DF80E00E0B28DF80F00042237
:10536000152103A8FDF7BFFB280E8DF80C00280CB3
:105370008DF80D00280A8DF80E00E8B200E034E048
:105380008DF80F000422252103A8FDF7ACFB0221B4
:105390006248FFF7AFFE84A000F04CFE88A000F04A
:1053A00049FE00208CA11022CDE9002102907D4A07
:1053B0001288A2F1780606EBD672C2F34F0000E025
:1053C0000AE0784A5288143A91B20C239622FBF7ED
:1053D0007FFE0A20FBF766FB0020624908704870D8
:1053E0008870C87008714871887147480078012832
:1053F0001BD100204449087046480078012805D197
:105400000222784801684548FDF730FB42480078A1
:10541000012805D10222734801683D48FDF726FBAB
:1054200070480068801C6F49086025E7012080F300
:10543000138800BF6C486D49086000BF00BFFDE7DE
:10544000FEB54FF47A30FEF76FF9FDF75EFA0422ED
:10545000152102A8FDF7BBFA9DF8084024029DF82B
:105460000900044324029DF80A00044324029DF825
:105470000B0004430422252102A8FDF7A8FA9DF899
:1054800008502D029DF8090005432D029DF80A00E1
:1054900005432D029DF80B0005435548844203D176
:1054A0005448854200D1FEBDFBF79CFB102140F221
:1054B0008330FBF702FB0A20FBF7F4FA14E14FF408
:1054C0007840FBF767FB4FF47A70FEF7FBF84FF478
:1054D000FC60FBF75FFB4FF47A70FEF7F3F81F20D8
:1054E000FBF758FB4FF47A70FEF7ECF81C48008885
:1054F00000F400400028E1D00020194908807BE03A
:10550000580002400438014090000020BC000020F8
:1055100095000020910000209200002093000020C0
:10552000000400400100002004000020B7A2CBCD01
:1055300020343020303420314120303020303120B0
:10554000303020354620304420304120C6F4B6AFFC
:10555000464C53415348B8FCD0C20D0A000000002D
:1055600098000020D6100020D5FDD4DAB2C1B3FDDA
:10557000D5FBBFE9464C4153482CB9FDB3CCB4F33D
:10558000B8C5D2BBB7D6D6D32E2E2E2E2E2E200D9A
:105590000A00000045726173696E672E2E2E2E2E52
:1055A0002E000000CC000020D5FBBFE9464C415343
:1055B00048B2C1B3FDCDEAB3C9210D0A0000000015
:1055C000C7EBB4F2BFAAD0E8D2AACFC2D4D8B5C430
:1055D000CEC4BCFE0D0A00004572617365204F4BBE
:1055E00000000000B80000200400FA050CED00E007
:1055F000DDCCBBAA085214133C480078402873D174
:105600003A48407804286FD13848407937490979B9
:10561000364FCDE90010FB78BA7879783878FFF703
:105620001BFE3946897988425ED1384680781B282E
:1056300051D12F4E300E8DF80800300C8DF8090036
:10564000300A8DF80A00F0B28DF80B000422152103
:1056500002A8FDF748FA274E30168DF80800300CE6
:105660008DF80900300A8DF80A00F0B28DF80B00B1
:105670000422252102A8FDF736FA0422152102A8EA
:10568000FDF7A5F99DF8084024029DF809000443A0
:1056900024029DF80A00044324029DF80B000443F1
:1056A0000422252102A8FDF792F99DF808502D0249
:1056B0009DF8090005432D029DF80A0005432D02BF
:1056C0009DF80B0005430A48844204D130468542C8
:1056D00001D1FFF7ABFE00200449087048708870C4
:1056E000C870087148718871E9E60000D610002082
:1056F000DDCCBBAA08521413421C10F8011B002970
:10570000FBD1801A704710B5002200E0521C835C68
:105710008C5CA34201D1002BF8D1D8B2E1B2401A7F
:1057200010BDF0B480EA0102D40F4200B2EB410F89
:1057300002D20246084611464A0042D0C30DDDB2ED
:10574000C1F3C752AD1A202D35DAC1F3160141F469
:10575000000204B15242C5F1200602FA06F12A41C4
:105760001044B3EBD05F23D0C4B1012DA0EBC350E4
:1057700009DCF0BC4FF0004202EAC352DBB200F594
:10578000000000F019BA400000F1807000EBC35037
:10579000A0F1807040EAD170490009E0490841EA6F
:1057A000C071A0EBC35000F50000400800EBC350EF
:1057B000F0BC00F0F8B96142012202EB4101001B8C
:1057C000F6E7F0BC704781F00041AAE780F00040A6
:1057D000A7E780EA010210B502F00043400022D0A2
:1057E0004A001FD0010E01EB1261C0F35600C2F354
:1057F000560240F4000042F40002A0FB0220000424
:105800007F39140400D0401C50EA124001D44000FB
:10581000491EC2B20C0604EBD010401C4008802A7E
:1058200002D003E0002010BD20F00100002900DAC2
:105830000020184310BD30B480EA010202F0004598
:1058400030F0004221F0004013D090B1C30DD40DD0
:10585000C2F31601C0F31600E41A41F4000140F44B
:1058600000027D34914201D3641C00E04900002C09
:1058700002DA30BC002070474FF400000023914250
:1058800001D3891A034340084FEA4101F7D151B1CE
:10589000914202D14FF0004105E002D24FF00101E8
:1058A00001E06FF0010103EBC450284430BC00F06C
:1058B0007AB9420005D0C0F3C7525242914201DC8E
:1058C0000020704700EBC15070472DE9FE4F81EA80
:1058D000030404F0004421F0004100944FF0000B59
:1058E00023F0004350EA01045ED052EA03045BD087
:1058F000C3F30A54C1F30A552C44A4F2F3340194BF
:10590000A0FB0254C1F3130141F48011C3F313034C
:1059100043F4801301FB024400FB034E840A970A00
:1059200044EA815447EA8357A4FB076802958D0A2D
:1059300005FB07854FEA932C04FB0C542705029DB9
:105940004FEA065847EA1637B5EB08056EEB070C29
:10595000870E920E47EA811742EA8312A7FB0201E3
:10596000B6EB0B0164EB00042B0D43EA0C335E181D
:1059700044EB1C50DA465146E7FB0201C5F3130421
:105980004FEA0B3343EA14534FEA0432019C43EAD3
:105990000603A4F10C040294009CCDE900B400F0CD
:1059A00048F903B0BDE8F08F00200146F9E7C10FC8
:1059B00080EAE0700844CA079623002100F0FCB892
:1059C00096230022114600F0F7B80EB540F233419D
:1059D00002910021CDE900110A460B4600F029F999
:1059E00003B000BD00F0004220F00040C10DC0F344
:1059F000160040F400007F2901DA00207047962944
:105A000003DCC1F19601C84001E096398840002AC4
:105A1000F4D04042704720F00040C10DC0F31600A2
:105A200040F400007F2901DA00207047962903DC4A
:105A3000C1F19601C8407047963988407047C1F35C
:105A40000A5210B5C1F3130140F2FF3341F4801143
:105A50009A4201DA002010BD40F233439A42A2F28A
:105A6000334203DC524200F08EF810BD904010BD6E
:105A700000F0004230F000400AD0C10D01F5607125
:105A8000C0F3160042EA0151C208400711437047B3
:105A9000002001467047000030B5041E71F100047B
:105AA00004DB4FF00044404264EB0101141E73F12B
:105AB000000405DB1C464FF00043524263EB040335
:105AC0008B4208BF824230BD30B5041E71F1000424
:105AD00004DB4FF00044404264EB0101141E73F1FB
